:0C44000000000000FFFF0000FFFF0000B4
:02440C000000AE
:10440E00314000443C4002240D433E401200B012A5
:10441E00A8453C4000243D400C440D9C04243E40E5
:10442E000200B0127445B012D4450C43B012584578
:10443E00344000443540004426430D3C3440004493
:10444E00354000442643073C344000443540004488
:10445E003640FEFF003C0594052427440456A7125F
:06446E001040F4FF304194
:10447400304130413C40F0453C90F04507243D40FC
:1044840000000D9303243C40F0458D1230413D4023
:10449400F0453D80F0450D110C4D5C034D180C1199
:1044A4000D5C0D110D9307243E4000000E93032470
:1044B4003C40F0458E1230411A15C2930224172055
:1044C4003A400A443A8008440A113A5339400844AD
:1044D4001C4204240C9A0D28B01278443D4000007C
:1044E4000D9303243C4000448D12D2430224191737
:1044F40030411C53824C04240C5C0C592C4C8C12FF
:10450400E73F3E4000000E9305243D4006243C4016
:1045140000448E12B01292443041B240805A5C0181
:104524003041D2D30A02D2D30402D2C302023041B0
:10453400B2D000024003B2D020004003B2D0C00089
:104544004003B240FF7F5403B2D080004403A2D39F
:1045540040033041B240805A5C01D2D30A02D2D324
:104564000402D2C30202B012344503430343FD3FA5
:104574000D9C09280F4C0E5C0E9F0C24EF4D00007F
:104584001F531D53F93F0F4D0F5E0C9FF32F3E53E6
:104594003E93012030410B4C0B5E0F4D0F5EEB4FF1
:1045A4000000F53F0F4C0E5C0F9E01203041CF4DB3
:1045B40000001F53F93F30410A153A4004442C4A85
:1045C4003C9302200A1730418C123A50FEFFF73F09
:1045D400B0120645B012BC45B0124A44B0123E4473
:0C45E4003041B0125644B012BC443041CB
:02FFFE000E44AF
:040000030000440EA7
:00000001FF
