:0CF8000000000000FFFF0000FFFF000000
:10F80C00314000033C4004020D433E401200B01254
:10F81C000EFB3C4000023D405AFB0D9C04243E4034
:10F82C000400B012D6FAB0123EFB0C43B012D8F959
:10F83C00344000F8354000F82643304068F8344036
:10F84C0000F8354000F82643304068F8344000F8A2
:10F85C00354000F83640FEFF304068F8059405242A
:10F86C0027440456A7121040F4FF30413041304178
:10F87C003C405AFB3C905AFB07243D4000000D9342
:10F88C0003243C405AFB8D1230410A123A405AFB79
:10F89C003A805AFB0A110C4AB01222FA0C5A0D4C3F
:10F8AC000D110D9307243E4000000E9303243C40A1
:10F8BC005AFB8E123A4130410A120912C2930402C9
:10F8CC0017203A400AF83A8008F80A113A5339409E
:10F8DC0008F81C4206020C9A0D28B0127CF83D4028
:10F8EC0000000D9303243C4000F88D12D243040217
:10F8FC0030401CFA1C53824C06020C5C0C592C4CEC
:10F90C008C123040DEF83E4000000E9305243D4042
:10F91C0008023C4000F88E12B01296F83041F2F01A
:10F92C00EFFF2300829302020D2482430202B2F005
:10F93C003FFF6001B2D0C0006001E2C22400D2E3FC
:10F94C002100001392430202B2F03FFF6001B2D0DB
:10F95C0080006001E2D22400D2E32100001392C3A4
:10F96C0060010013B240805A20013041F2D04000B7
:10F97C002600F2D040002200F2F0BFFF2100D2D3CB
:10F98C0022003041E2C22200C2432300E2C2240022
:10F99C00E2D225003041B2D000026001B2D020008A
:10F9AC006001B2D0C0006001B240FF7F7401B2D0E0
:10F9BC0080006401B24010006201B240100064018A
:10F9CC00B2D000C06401A2D360013041B240805A71
:10F9DC002001F2D040002600F2D040002200F2F0CC
:10F9EC00BFFF2100D2D32200E2C22200C243230077
:10F9FC00E2C22400E2D22500B012A2F932D20343B3
:10FA0C00034330400AFA34413541364137413841DD
:10FA1C0039413A41304112C30C1012C30C1012C3BD
:10FA2C000C1012C30C1012C30C1012C30C1012C306
:10FA3C000C1012C30C1012C30C1012C30C1012C3F6
:10FA4C000C1012C30C1012C30C1012C30C1012C3E6
:10FA5C000C1030413D5312C30C100D93FB2330415D
:10FA6C0012C30D100C1012C30D100C1012C30D107C
:10FA7C000C1012C30D100C1012C30D100C1012C36D
:10FA8C000D100C1012C30D100C1012C30D100C1015
:10FA9C0012C30D100C1012C30D100C1012C30D104C
:10FAAC000C1012C30D100C1012C30D100C1012C33D
:10FABC000D100C1012C30D100C1030413E5312C31C
:10FACC000D100C100E93FA2330410D9C0A280F4C8C
:10FADC000E5C0E9F0D24EF4D00001F531D53304044
:10FAEC00DEFA0F4D0F5E0C9FF22F3E533E9301201A
:10FAFC0030410B4C0B5E0F4D0F5EEB4F0000304056
:10FB0C00F6FA0F4C0E5C0F9E01203041CF4D0000D9
:10FB1C001F53304012FB30410A123A4004F82C4A71
:10FB2C003C9302203A4130418C123A50FEFF304057
:10FB3C002AFBB01212F9B01224FBB0124AF8B01220
:0EFB4C003CF83041B01258F8B012C4F8304105
:04FB5A0000000000A7
:02FFE4002AF9F8
:02FFF2006AF9AA
:02FFFE000CF8FD
:040000030000F80CF5
:00000001FF
